:10000000022588E5BA54F04FF5BA220214A4908074
:10001000237403F075B93D43BAC02202364FE4FFA2
:10002000022927022CA2E4900000F090030DE0606A
:1000300010A3E0700CFBFD7F011230C9E4FBFD80D2
:100040002490027FE075F00A84900000F0E0FB2429
:10005000FFE433FD7F011230C990027FE075F00AA2
:1000600084ABF07D017F021230C922022FB402035B
:10007000B6E86480F8E933E83360110460F0ED33EA
:10008000EC337009E8FCE9FDEAFEEBFF220460DED8
:10009000D3EB9FEA9EE99DE8C2E78CF0C2F795F0AA
:1000A000400CE8CCF8E9CDF9EACEFAEBCFFB12032D
:1000B0008185D0F05804700320D5B3E80470075050
:1000C00002B2D50203C092D5EC0460F7E4CCC0E0E4
:1000D000C398F8603B94186008400DD0E0FB020321
:1000E00098E4FBFAC9FC8028E830E406E4C9FBE4A4
:1000F000CAFCE830E305E4C9CACBFCE85407601049
:10010000F8C3E913F9EA13FAEB13FBEC13FCD8F18B
:1001100030F52FC3E49CFCEF9BFFEE9AFEED99FDBA
:10012000D0E0FBEF4E4D4C701222DB030203BDEC1E
:100130002CFCEF33FFEE33FEED33FDED30E7EB0249
:100140000398EF2BFFEE3AFEED39FDD0E0FB5013A4
:100150000BBB00030203C0ED13FDEE13FEEF13FF14
:10016000EC13FC020398EC4D6011E8497017ED3375
:10017000EC3304600DE4FCFFFEFD22E933E83304B8
:1001800070F80203B612038158046009E4CC24819C
:1001900050062850090203C02840030203BDC0E0F6
:1001A000EB4A7044B98006D0E0FB0203ACEF4E701E
:1001B0001CBD8008EBFFEAFEE9FD80EBE98DF0A4B1
:1001C000FEE5F002024FE9CDF9EAFEEBFFEF89F020
:1001D000A4FCE5F0CE89F0A42EFFE435F0CD89F043
:1001E000A42DFEE435F08067EF4E7005BD80D7800A
:1001F000C3EF8BF0A4ACF0EE8BF0A42CFCE435F054
:10020000F8EF8AF0A42CE5F038FCE433CB8DF0A4B1
:100210002CFCE5F03BF8EE8AF0A42CFCE5F038F875
:10022000E433CF89F0A42CFCE5F038CF3400CE893C
:10023000F0A42FFFE5F03EFEE433C98DF0A42EFEBE
:10024000E5F039CD8AF0A42FFFE5F03EFEE43DFD58
:1002500033D0E0FB50070BBB000F0203C0EC2CFCBB
:10026000EF33FFEE33FEED33FD0203980203C0ECE3
:100270005D046005E8590470030203B61203815857
:100280000460F6EC4860F2EC7004FDFEFF22C860EA
:10029000DB2481C85009C398600250060203BD9850
:1002A00050CAF582E9294B4A7005AB820203AC754E
:1002B000F0007C1A7880C3EF9BEE9AED99400DC355
:1002C000EF9BFFEE9AFEED99FDE842F0DC23ACF0E7
:1002D000D0E0FFD0E0FED0E0FDAB8220E7101BEBCA
:1002E00060BAEC2CFCEF33FFEE33FEED33FD02037E
:1002F00098E803F830E705C0F075F000EF2FFFEE47
:1003000033FEED33FD40B830E7C280AA75F020809F
:100310000E75F010800575F0087D007E007F0033BB
:1003200092D530D5031208F8EC334010EF33FFEECE
:1003300033FEED33FDEC33FCD5F0ED22E5F0247E09
:10034000A2D513CC92E7CDCEFF22EDD2E7CD33EC90
:100350003392D524814006E4FFFEFDFC22FCE4CF6D
:10036000CECDCC24E0501174FF80EDC3CC13CCCDA6
:1003700013CDCE13CECF13CF0470F030D5DE0208EC
:10038000F8E9D2E7C933E833F892D5EDD2E7CD33B7
:10039000EC33FC5002B2D522EC30E7100FBF000C5A
:1003A0000EBE00080DBD00040BEB6014A2D5EB13CC
:1003B000FCED92E7FD2274FFFCFDFEFF22E480F8D5
:1003C000A2D574FF13FC7D80E480EFF920E736248A
:1003D000F950037907E4F42402FBE58215827002E8
:1003E0001583DBF6E024FB501BE96014E4F0E582A2
:1003F000158270021583E004F0B40A08E4F0D9EE27
:100400007401F00A22C2D522ED33EC3392D5FA60A2
:100410002AB4FF33EDC2E77BFF60067A04792DE44E
:10042000227A04793620D5047A047931224E614E3D
:10043000002B494E46002D494E4600E47A08F0A3B1
:10044000DAFC7B00740722C083C082ECC0E0EDC000
:10045000E0EEC0E0EFC0E0EA75F010A4CAABF075C2
:10046000F04DA42BFBE435F0FCEA2410FAEB34C584
:10047000FBEC34D9FCEDC2E7FF75F056A4F424116F
:10048000C5F0F434C58FF0A42AE5F03BE43CF0203D
:10049000E71412053DD0E0FFD0E0FED0E0FDD0E053
:1004A000FC12026F8014F40412053DD0E0FFD0E08E
:1004B000FED0E0FDD0E0FC120166D082D083E0FAED
:1004C000EDD2E7CD33EC332482FBE4C3CF33CFCE80
:1004D00033CECD33CD33DBF37B0775F00A84600474
:1004E000F0A31B0AE5F0F0A38FF0740AA4FFACF0B0
:1004F0008EF0740AA42CFEACF050010C8DF0740A3E
:10050000A42CFDE435F0F0A3DBDE7407223F80006D
:10051000004120000042C80000447A0000461C4010
:100520000047C35000497424004B1896804CBEBC51
:10053000205A0E1BCA6753C21C749DC5AEFB6006D1
:100540005407601C232312056BEB54386009120515
:1005500057120566120166ECF8EDF9EEFAEFCB22C0
:10056000EB12056680F1543803241C90050DFE93B0
:10057000FC0EEE93FD0EEE930ECE93FF22BB010612
:1005800089828A83E0225002E722BBFE02E32289AD
:10059000828A83E49322BB010CE58229F582E583FC
:1005A0003AF583E0225006E92582F8E622BBFE06F2
:1005B000E92582F8E222E58229F582E5833AF5838E
:1005C000E49322BB010989828A83F8E028F0225053
:1005D0000327F722BBFE05F8E328F3228A838982EA
:1005E000F8E4932822BB010FF8E58229F582E58320
:1005F0003AF583E028F0225009C58229F8E58226E1
:10060000F622BBFE09C58229F8E22582F222F8EA29
:100610002583F583E9932822BB010689828A83F02A
:10062000225002F722BBFE01F322F8BB010DE58246
:1006300029F582E5833AF583E8F0225006E9258220
:10064000C8F622BBFE05E92582C8F222EF8DF0A490
:10065000A8F0CF8CF0A428CE8DF0A42EFE22BC00F2
:100660000BBE0029EF8DF084FFADF022E4CCF875CD
:10067000F008EF2FFFEE33FEEC33FCEE9DEC9840DC
:1006800005FCEE9DFE0FD5F0E9E4CEFD22EDF8F578
:10069000F0EE8420D21CFEADF075F008EF2FFFEDD8
:1006A00033FD4007985006D5F0F222C398FD0FD5D0
:1006B000F0EA22C5F0F8A3E028F0C5F0F8E58215CD
:1006C0008270021583E038F022A3F8E0C5F025F02F
:1006D000F0E582158270021583E0C838F0E822BB8D
:1006E000010A89828A83E0F5F0A3E022500687F0B0
:1006F00009E71922BBFE07E3F5F009E31922898215
:100700008A83E493F5F074019322BB0110E58229FA
:10071000F582E5833AF583E0F5F0A3E0225009E99C
:100720002582F886F008E622BBFE0AE92582F8E277
:10073000F5F008E222E5832AF583E993F5F0A3E9D1
:100740009322BB010DC58229C582C5833AC58302A8
:1007500006B35011C58229F808E5F026F618F5F021
:10076000E58236F622BBFE11C58229F808E225F0A3
:10077000F5F0F218E23582F222F8E58229F582E5F9
:10078000832AF58374019325F0F5F0E4933822BBB6
:10079000010A89828A83F0E5F0A3F0225006F70966
:1007A000A7F01922BBFE06F3E5F009F31922F8BB06
:1007B0000111E58229F582E5833AF583E8F0E5F059
:1007C000A3F0225009E92582C8F608A6F022BBFE54
:1007D00009E92582C8F2E5F008F222E88FF0A4CCFE
:1007E0008BF0A42CFCE98EF0A42CFC8AF0EDA42C58
:1007F000FCEA8EF0A4CDA8F08BF0A42DCC3825F027
:10080000FDE98FF0A42CCD35F0FCEB8EF0A4FEA911
:10081000F0EB8FF0A4CFC5F02ECD39FEE43CFCEA1E
:10082000A42DCE35F0FDE43CFC2275F00875820065
:10083000EF2FFFEE33FECD33CDCC33CCC58233C5A5
:10084000829BED9AEC99E58298400CF582EE9BFE36
:10085000ED9AFDEC99FC0FD5F0D6E4CEFBE4CDFA91
:10086000E4CCF9A88222B800C1B90059BA002DEC35
:100870008BF084CFCECDFCE5F0CBF97818EF2FFFCD
:10088000EE33FEED33FDEC33FCEB33FB10D7039975
:100890004004EB99FB0FD8E5E4F9FA227818EF2F22
:1008A000FFEE33FEED33FDEC33FCC933C910D70541
:1008B0009BE99A4007EC9BFCE99AF90FD8E0E4C960
:1008C000FAE4CCFB2275F010EF2FFFEE33FEED3390
:1008D000FDCC33CCC833C810D7079BEC9AE89940BD
:1008E0000AED9BFDEC9AFCE899F80FD5F0DAE4CD1F
:1008F000FBE4CCFAE4C8F922C3E49FFFE49EFEE4E3
:100900009DFDE49CFC22BB010789828A83020920A9
:100910005005E9F80209AFBBFE05E9F80209BB2260
:10092000ECF0A3EDF0A3EEF0A3EFF022A882858314
:10093000F0D083D0821209431209431209431209ED
:1009400043E473E493A3C583C5F0C583C8C582C8D7
:10095000F0A3C583C5F0C583C8C582C822A425827B
:10096000F582E5F03583F58322F8E0FBA3A3E0F9F7
:1009700025F0F0E582158270021583E0FA38F02246
:10098000EBF0A3EAF0A3E9F022D083D082F8E4935D
:100990007012740193700DA3A393F8740193F58200
:1009A0008883E4737402936860EFA3A3A380DFECF1
:1009B000F608EDF608EEF608EFF622ECF208EDF296
:1009C00008EEF208EFF222E5082438F582E434015B
:1009D000F583E0050822900135300703900138E4E3
:1009E00075F00112096902057D2000E97F2ED20011
:1009F0008018EF540F2490D43440D4FF30040BEF10
:100A000024BFB41A0050032461FFE50960021509F0
:100A1000050CE50C7002050B30070E900135E475EE
:100A2000F001120969EF02061802397A7403D2073D
:100A30008003E4C207F508900135120980E4F50946
:100A4000F50BF50CE50960077F20120A0A80F575A1
:100A50000AFFC201C200C202C203C205C206C20826
:100A60001209D6FF700D3007057F00120A1BAF0C6C
:100A7000AE0B22B4255FC2D5C2041209D6FF24D022
:100A8000B40A00501A75F00A780930D50508B6FF87
:100A90000106C6A426F620D5047002D20380D9240C
:100AA000CFB41A00EF5004C2E5D204020D0DD201FA
:100AB00080C6D20080C0D20280BCD2D580BAD20516
:100AC00080B47F20120A0A2002077401B509004091
:100AD000F11209C7FF120A0A020A44D208D206809C
:100AE000951209C7FB1209C7FA1209C7F94A4B70D8
:100AF00006790B7A0E7BFF20022EE509602A7E0024
:100B00008E8275830012059660060EEE650A70F0FF
:100B1000C2D5EBC0E0EAC0E0E9C0E0EE120D6ED055
:100B2000E0F9D0E0FAD0E0FB12057DFF60AAEBC04F
:100B3000E0EAC0E0E9C0E0120A0AD0E02401F9D0FE
:100B4000E03400FAD0E0FBE50A0460DCD50AD98085
:100B500087D20280A2120D5060F7E50A70010412DC
:100B600003CBA90A600DE50A600914F50A120DF815
:100B7000EF60F3EA30E702F404C3995079EAF42510
:100B80000A0430E701E404F50A800D120D5060C13B
:100B9000EA050A250A1203CBEA900164F030E70166
:100BA000E4250A04D50A0420050114120D6EE4C0E0
:100BB000E0120DF8900164E0601320E70714F012D2
:100BC00009F2802204F0D0E014C0E07F001209F2A4
:100BD000E50A60071209E9150A800B3005031209BE
:100BE000E9D0E0020A44D0E00480C4120D50609EB7
:100BF000E50A041203CB900164EAF0E50A2005023D
:100C00006001042404120D6E74FF04C0E0120DF89C
:100C10001209F2E50A20050260031209E9D0E0B5E5
:100C20000AE87F451209FC900164E07F2B30E7045D
:100C30007F2DF404C0E0120A0AD0E075F00A84C0E7
:100C4000F01209F3D0E01209F3020A44791080028D
:100C50007908C206C2088008D2D5790A8004790AC8
:100C6000C2D5E50A047002F50AE4FAFDFEFF120996
:100C7000C7FC7B082001131209C7FD7B1030000A56
:100C80001209C7FE1209C7FF7B20EC3382D592D52B
:100C90005013C3E43000069FFFE49EFEE4200103EE
:100CA0009DFDE49CFCE4CBF8C201EC700CCFCECDF2
:100CB000CCE824F8F870F38017C3EF33FFEE33FE6F
:100CC000ED33FDEC33FCEB33FB994002FB0FD8E92D
:100CD000EB300105F8D0E0C448B201C0E00AEC4DA9
:100CE0004E4F78207B0070C2EAB50A0040BCC0E0DD
:100CF000120D70D0F0D0E0200104C4C0E0C4B201F5
:100D0000C0F01209F3D0F0D5F0EB020A44120989C1
:100D10000AE1530C4C580AB24C0AAE420C504F0C2C
:100D200058440C58490AC7430C5E550B8B460BEBD5
:100D3000450B55470E2B500AB62D0ABA2E0ADD2B4D
:100D40000ABE230ADB200E142A0A764800000AD5C0
:100D5000E50AB4FF03750A061209C7FC1209C7FDAC
:100D60001209C7FE1209C7FF90015D020408790A43
:100D7000A2D5200314300509B910020404B90801F2
:100D800004A2D52006025001042002689202B5098F
:100D9000005034C0E07F203003197F30A202720679
:100DA0007205500F120DC7C202C206C205C2087FEB
:100DB00030800F300503E9C0E0120A0A300503D085
:100DC000E0F9D0E0B509CC3005177F30B9100C122E
:100DD0000A0A7F583004077F788003B90803120A93
:100DE0000A3002057F2D020A0A7F202008F87F2B97
:100DF0002006F322920280CF7F00B40700500B241C
:100E00005DF582E43401F583E0FF22286E756C6C99
:100E10002900D2011209C73001F8C201780930D582
:100E20000108F6020A762D504349581209C72403D7
:100E3000B405004001E4900E26931209FB743A12A7
:100E400009FBD203750904020C4C4103170041034E
:100E50001900410315004103180041031600420226
:100E60006C000042024C00004202720CC541024676
:100E7000004102450041024700410277005E024EF8
:100E8000005A00B400DC01040127014A016D01860B
:100E9000019A019F01A401A901AE01B301C241025F
:100EA00076EF4102480041027002410249F04102DE
:100EB0004A0241026F0041024B00410271004102AF
:100EC0006E0041027400410275004202E8000A42CD
:100ED00002E100054202EA00144202DE00C84202BA
:100EE000E600C84102E5004102E3004102E400419E
:100EF00002EC004102ED004102E00041030F00411D
:100F0000031000410311004103120041031300418B
:100F100003140041027B004102A20048029107E253
:100F200001010C00000050028102070000020700CE
:100F300000000000000000000041029B0141029FF0
:100F4000004102A0004102800041027A0042027D7D
:100F500000004102790041027F094102A1004202E2
:100F60009D000041029A0041027C0041027800414C
:100F700002F9004102F6004102F7014202F2138831
:100F80004102F8004102F1004102F5004102F40083
:100F90004102EE004202EF0000410309074103074E
:100FA0000041030D004103080041030E0141030A03
:100FB00000410305004103060042030B01F4500108
:100FC000E402BA06050721089C0A4C0BB80D310F44
:100FD0000E604001F400000000000000000000006E
:100FE0000000000000000000000000000000000001
:100FF00000000000000000000000000000000000F1
:1010000000000000000000000000000000000000E0
:1010100000000000004201E200004101E100420244
:10102000A600004202A300004202B20CC54802A87A
:1010300000000000000000005402B40000000000A6
:10104000000000000000000000000000000000425E
:1010500002B00000430300899FC74102FE00410324
:1010600004024102FA004102FB004102DB0041029E
:10107000D7004102D8004102D5004102D40042020B
:10108000DC00004C02C804060AAF0EAF04060AAF2B
:101090000EAF4202D907084102D60000900001EFCE
:1010A000F0E4900005F0900001E075F008A424F44D
:1010B000F9740135F0FAA37401F0A3EAF0A3E9F0A2
:1010C000900001E0FF123613EF700302119E9000B2
:1010D00002E0FBA3E0FAA3E0F912057DFF7E00C366
:1010E00094057480948050057405020618C3EF942B
:1010F0000AEE64809480500574010205C3900005D7
:1011000012059670149000050412062A900001E062
:1011100075F005A404FF123A56900002E0FBA3E02C
:10112000FAA3E0F990000312070AFFAEF0D394008F
:10113000EE9400500302123F90000112070AC39F71
:10114000E5F09E5022900001E475F001120742FC88
:10115000C3E5F09FEC9E500302123F900001E07542
:10116000F005A424038033900006120596FFD39463
:101170000074809480500302123F900007740112A3
:1011800005E5C39F500302123F900007E412062AB0
:10119000900001E075F005A42404FF023A56900087
:1011A00002E0FBA3E0FAA3E0F912057DFF7E00D385
:1011B00094057480948040077405120618806EEFC1
:1011C0004E600774FF1205C38063900005120596F8
:1011D0006401705990000512062A90000312070A54
:1011E000FFAEF090000112070AC39FE5F09E900049
:1011F00002E0FB401BA3E0FAA3E0F9900001E4F554
:10120000F01207AE900001E075F005A424058019E6
:10121000A3E0FAA3E0F9900001E4F5F01207AE9024
:101220000001E075F005A42402FF123A5690000276
:10123000E0FBA3E0FAA3E0F9900007E412062A22FB
:10124000900307E0FF7E007011900295E004F064C7
:1012500018600302136CF002136CEF64014E7011FE
:10126000900296E004F0643C600302136CF00213F9
:101270006C900307E0FF7E006402701290029BE016
:101280007D0070027D0190029BEDF002136CEF6413
:10129000034E702590029175F0011206B3FEE5F041
:1012A00064347003EE6408600302136C900291745E
:1012B00008F0A37433F002136C900307E064047029
:1012C00058900291E0FEA3E0FFA3E0FC2401FBE4C0
:1012D00033FAEB640D4A70047D018003EC04FD9049
:1012E0000294E0FB122EF9EF6021900291E0FEA340
:1012F000E0FFA3E0FC2401FBE433FAEB640D4A7049
:10130000047D018003EC04FD1236F9900293E004A1
:10131000F0640D705704F08053900307E06405708B
:101320004B900294E004F0900293E0FFFD7C006497
:1013300002600EEF903C7D93FF900294E0D39F50AB
:1013400025ED64024C7025900291E0FEA3E0FF12AF
:10135000379AEF241DFFE433FE900294E07C00B541
:10136000070AECB506069002947401F0E490029727
:10137000F00238AE90000212092C0000000090002C
:101380000612092C00000000E490000AF0A3F0A36C
:10139000F0A3F0A3F0A304F0A374C2F0E4A3F090D0
:1013A000026CE07002A3E0700302149E900272E0EF
:1013B000FCA3E0FDE4120311E4FBFA79E1784312A7
:1013C000026F900002120920E4FFFEFD7C3F9000B6
:1013D00002E0F8A3E0F9A3E0FAA3E0FB1200751223
:1013E000034AAD07AC06E412031190000212092073
:1013F00090026CE0FCA3E0FDE4120311900002E017
:10140000F8A3E0F9A3E0FAA3E0FB12026F90000654
:10141000120920E4FFFEFD7C3F900006E0F8A3E007
:10142000F9A3E0FAA3E0FB12007512034A90000A48
:10143000EEF0A3EFF0E4A3F090000CE0FFC3940FF4
:1014400074809480504EEF25E0244EF582E43402FF
:10145000F583E0FCA3E0FD90000AE0FEA3E0FF12AC
:101460003B1D90000DEEF0A3EFF0D3900010E09F35
:1014700090000FE09E401590000CE0900011F0905D
:10148000000DE0FFA3E0A3CFF0A3EFF090000CE08D
:1014900004F080A4900011E004F0E024F0F090004B
:1014A00011E0FF22C0E0C083C082C0D09002F9E00A
:1014B000600302159D758ACC758CF89002F2E0707D
:1014C00002A3E0600E9002F3E024FFF09002F2E04D
:1014D00034FFF090030BE07002A3E0600E90030C69
:1014E000E024FFF090030BE034FFF0900310E004E1
:1014F000F0C3940A7480948050030215BBE4F0A3F7
:10150000E004F0E0D39402748094804007E4F0900B
:1015100002E404F09002E37401F0900308E0D39435
:101520000074809480400AE014F0700590030D046C
:10153000F090030FE004F0C3940574809480400F92
:10154000E4F09002E504F0900315E0600214F090DE
:101550000312E004F0D39414748094804007E4F004
:101560009002ED04F0900313E004F0D394C874806B
:1015700094804007E4F09002E004F09002E6E0700E
:1015800002A3E0600E9002E7E024FFF09002E6E0A4
:1015900034FFF090026FE0602214F0801E758ABC68
:1015A000758CFB9002F2E07002A3E0600E9002F3F3
:1015B000E024FFF09002F2E034FFF0D0D0D082D0EF
:1015C00083D0E032E4900000F0A3F0A37407F0A30E
:1015D00074B2F0E4F9900297E5F2F0900296E5F328
:1015E000F0E5F4541F900295F0E5F4C4135407900D
:1015F0000298F0AFF6900000E4F0A3EFF0E0FFAD4A
:10160000F5ED900000CFF0A3EFF0C3900001E0945F
:101610006D900000E09401403C900002123795EF7D
:101620006015C3900001E0946E900000E0940140CA
:1016300024A3E024928006900001E02493F090001F
:1016400000E034FEF0900003E004F070BD90000272
:10165000E004F080B5900002E0FFA3E0900291CF9B
:10166000F0A3EFF0C3900001E0941C900000E09420
:10167000004056900291123795EF6022E9640170A4
:101680001DC3900001E0941D900000E094004039DB
:10169000A3E024E3F0900000E034FFF08028E9901C
:1016A0003C7E93FF900000E0FCA3E0FDC39FEC9420
:1016B000004016E9903C7E93FFED9FFEEC94009075
:1016C0000000F0A3CEF009809BE904900293F09013
:1016D0000000A3E004900294F022900307E0FF7E54
:1016E000007012900295E014F0F460030217E174A8
:1016F00017F00217E1EF64014E7012900296E014A9
:10170000F0F460030217E1743BF00217E190030765
:10171000E0FF7E006402701290029BE07D00700288
:101720007D0190029BEDF00217E1EF64034E7026FD
:1017300090029174FFF5F01206B3FEE5F064B1700B
:1017400003EE640760030217E19002917407F0A3AF
:1017500074B2F00217E1900307E064047051900244
:1017600091E0FEA3E0FFA3E0FC24FFFBE434FF4B89
:1017700070047D0C8003EC14FD900294E0FB122EAB
:10178000F9EF601E900291E0FEA3E0FFA3E0FC24CD
:10179000FFFBE434FF4B70047D0C8003EC14FD125E
:1017A00036F9900293E014F07037740CF0803290A8
:1017B0000307E06405702A900294E014F070229010
:1017C0000293E0FF64026007EF903C7D93800E90EF
:1017D0000291E0FEA3E0FF12379AEF241C900294DE
:1017E000F0E4900297F00238AE900000EEF0A3EF24
:1017F000F0A3EDF0A3EBF0E4900007F0A3F0A374E6
:1018000007F0A374B2F0E4F9A3F0900000E0FCA3A9
:10181000E0FD900009E0FEA3E0FFC39DEE9C50298F
:1018200012379AEF9000086005E0246E8003E024F0
:101830006DF0900007E03401F090000AE004F070D1
:10184000C9900009E004F080C1900002E014FFE9B3
:10185000C39F5032E9903C7E93FF900008E02FF048
:10186000900007E03400F0900000123795EF60130D
:10187000E96401700E900008E004F0700690000723
:10188000E004F00980C3900003E0FB24FFFFE43490
:10189000FFFE900008E02FF0900007E03EF090007F
:1018A00000E0FEA3E0FFA3E0FD12218690000BEF15
:1018B000F070037407F043F102900006E0F5F29037
:1018C0000005E0F5F390000BE0C43354E0FF900016
:1018D00004E04FF5F4900007E0FCA3E0FDECF5F622
:1018E0008DF57F017E0012355D53F1FD22900309D5
:1018F000E060030219C890029FE0FF6062E5F454C3
:101900001FFE900282E06E7056A3E065F370509067
:101910000281E014601814602B14602A2403703FC5
:10192000EF7F0070027F0190029FEFF0802CE5F4C2
:10193000C413540764066027E5F4C413540764070E
:10194000601D80168014E5F4C41354076406600A11
:10195000E5F4C413540764077005E4FF123952908C
:1019600002A0E0FF6062E5F4541FFE900286E06E84
:101970007056A3E065F37050900285E0146018146F
:10198000602B14602A2403703FEF7F0070027F01F8
:101990009002A0EFF0802CE5F4C4135407640660B5
:1019A00027E5F4C41354076407601D80168014E50E
:1019B000F4C41354076406600AE5F4C413540764BE
:1019C0000770057F0112395222E4FE900000F0A357
:1019D000F0FBEF14600C14600E2402701590029559
:1019E00080089002828003900286E0FEA3E09000CF
:1019F00000F090029BE06012900001EEF0E4FDFF29
:101A00001222BD7F021222BD8050EEFD7C00C37405
:101A10008094804018ED940C74809480500FE49072
:101A20000305F0A304F0900001EEF0801090030590
:101A30007401F0E4A3F0EE24F4900001F0900306AA
:101A4000E0FDE4FF1222BD900305E0FD7F021222BB
:101A5000BD900001E07003740CF0900001E075F09F
:101A60000A84FB24FFE433FDE4FF1230C990000137
:101A7000E075F00A84ABF07D017F011230C990005F
:101A800000E075F00A84FB7D017F021230C99000EE
:101A900000E075F00A84ABF07D017F030230C97F5E
:101AA000061237F8908080E04480F090803A74030A
:101AB000F0908039F0908080E04408F0908080E0E1
:101AC00030E2F97F007EC27D017C00122D73123B53
:101AD00048123BA51220ED122A18122D0C123B942D
:101AE000123C36123C10123C3D123BE4123B71D2C8
:101AF000AF9002F9E070769002E3E06017E4F01234
:101B000033CE123173122F571228AC123412121F17
:101B10000A123B5D900309E0640760D59002E4E09F
:101B20006011E4F0121B7312246C9002EAE4F0A33B
:101B30007414F09002E5E06005E4F01237C79002FB
:101B4000EDE06008E4F0121E60123BC59002A2E0D6
:101B5000600BE4F01239011235D7123BB590027BCD
:101B6000E0608EE4F01215C41218ED8084123B057B
:101B7000021AF1E4900000F0A3F0A3F07F05121F19
:101B8000B09002A6EEF0A3EFF09002A3E0FCA3E079
:101B9000FD123B1D900001EEF0A3EFF0C39002A7F1
:101BA000E094059002A6E094005015E4F0A3F090B4
:101BB0000000E0700BFFFE1238839000007401F00B
:101BC000C3900002E09405900001E094004067E4B7
:101BD000900000F09002B2E0FEA3E0FF9002A6E0C9
:101BE000FCA3E0FDD39FEC9E4029ED9FFFEC9EFE01
:101BF000D3EF9414EE9400401AEDF47003EC640FEC
:101C000060119002B2ECF0A3EDF07B017A0279A8AA
:101C1000121DAB7B017A0279B0121CF59002B0E084
:101C2000FEA3E0FF1238839002A6E0FFA3E090023B
:101C3000A3CFF0A3EFF022900246E07003021CF461
:101C4000A3E0600214F0900245E014601C14605A96
:101C500014607224036003021CF4900247E06003E6
:101C6000021CF490024504F022900247E060030257
:101C70001CF4900277E0FF7E007480A807088006BD
:101C8000CEA2E713CE13D8F8FF900276E0FDEF5D09
:101C9000600543A940800353A9BF53A97F90024523
:101CA0007402F09002477404F022900247E07044FE
:101CB000900277E004F09002457403F0900247042C
:101CC000F043A98022900247E07029900277E0D388
:101CD0009407748094804016E4F0900246F09002DD
:101CE00045F0900276E064EF700A53D87F229002AC
:101CF000457401F022900003EBF0A3EAF0A3E9F0B1
:101D00009002A6E0FCA3E0FDE4120311E4FBFA79E3
:101D1000C8784212026F90000612092090000A1241
:101D2000092C00000000900006E0FCA3E0FDA3E009
:101D3000FEA3E0FFA804A905AA06FB120166900015
:101D400006E0F8A3E0F9A3E0FAA3E0FB1201669035
:101D500002A8E0F8A3E0F9A3E0FAA3E0FB12016611
:101D600090000A120920E4FFFE7DC87C4290000A20
:101D7000E0F8A3E0F9A3E0FAA3E0FB120166120386
:101D80004A900003E0FBA3E0FAA3E0F9EE8FF01223
:101D9000078F900003E0FBA3E0FAA3E0F91206DF4F
:101DA00045F0700675F00112078F22900003EBF0EA
:101DB000A3EAF0A3E9F0AB05AA04A312092C0000E2
:101DC000000090000A12092C00000000AE02AF03D0
:101DD000AD07AC06E4120311E4FBFA79C8784212AD
:101DE000026F90000612092090000A12092C44FA92
:101DF000000090000AE0FCA3E0FDA3E0FEA3E0FFEA
:101E0000E4FBFA79C8784212026F90000A120920A6
:101E1000900006E0FCA3E0FDA3E0FEA3E0FFA80421
:101E2000A905AA06FB120166900006E0F8A3E0F9F6
:101E3000A3E0FAA3E0FB120166A804A905AA06AB79
:101E40000790000AE0FCA3E0FDA3E0FEA3E0FF1280
:101E5000026F900003E0FBA3E0FAA3E0F902090699
:101E60009002A1E06003021F09FF1223DC9002DB55
:101E7000EFF07F011223DC9002D7EFF0A3E0FF9098
:101E800002DBE0FEB507129002D5E0FD9002D7E03C
:101E9000B505069002D4E07070EE600E1460121466
:101EA00070159002FE7402F0800DE49002FEF08046
:101EB000069002FE7401F09002D7E0FE1460101448
:101EC00060192402701F9002807401F0E480069073
:101ED00002807401F090027AF0800AE4900280F0AF
:101EE00090027A04F09002D4E0700204F09002DBD9
:101EF000E0FD6F60059002D8EDF09002D5E06E60D5
:101F0000089002D7E09002D5F022900319E0700308
:101F1000021FAF900315E06003021FAF900319F09A
:101F2000900309E0FF7E0064016065EF64047002C5
:101F3000805EEF64024E705E90028DE0FF90029C26
:101F4000E0FE25E025E02481F582E43402F583EF0C
:101F5000F090028EE0FFEE25E025E02482F582E499
:101F60003402F583EFF090028FE0FFEE25E025E0EC
:101F70002483F582E43402F583EFF0900290E0FFD1
:101F8000EE25E025E02484F582E43402F583EFF0C9
:101F9000E4900309F022900309E0640570119003B6
:101FA0001804F0E4900317F0900316F01232FB22AD
:101FB000900003EFF0E4A3F0A312092C000000004E
:101FC000E4900004F0900004E0C3940A74809480CC
:101FD0005059900003E0FF1238D8900004E0FD252E
:101FE000E024B4F582E43402F583EEF0A3EFF09040
:101FF0000005E0F8A3E0F9A3E0FAA3E0FBED25E09B
:1020000024B4F582E43402F583E0FEA3E0FFE4FCAF
:10201000FDEB2FFFEA3EFEED39FDEC38FC900005AC
:10202000120920900004E004F0809A900005E0FC82
:10203000A3E0FDA3E0FEA3E0FFE47B0AFAF9F812B7
:102040000866900005120920900005A3A3E0FEA3F6
:10205000E0FF22900309E064057019900318E06422
:102060000160030220EC900317F01232B3900316C4
:102070007405F022900309E070057F1002306A9029
:102080000309E0FF64067020900270E0D3940374AB
:102090008094805003E004F0900270E0D3940374C5
:1020A0008094804047E4F022E4900319F090030DFF
:1020B000F0900308743CF0EF24FE600D24FE600EE7
:1020C0002403701C121240801712234B80129002BE
:1020D0007FE004F0D3940F7480948040037401F087
:1020E00090031574A0F09003197401F022908005FC
:1020F0007402F0908015F0908016F0908002F090BD
:102100008003F0908004F0908007F0908011F090B0
:102110008013F0908034F090801DF0908033F09028
:102120008014F090800BF090800EF090800DF09075
:102130008035F0908028F0908031F0908017F090FA
:10214000800CF0908030F090802DF090802BF090FB
:102150008029F0908008F090800AF0908009F0903B
:102160008006F0908001F0908010F0908012F09046
:10217000801CF090802EF090800FF0908032F090D4
:102180008000F00232B390000CEEF0A3EFF0A3ED6C
:10219000F0A3EBF090000CE0FEA3E0FF7C007D6478
:1021A00012065EAB0790000CE0FEA3E0FF7C007D12
:1021B0006412065E900010EDF0AF03D3EF94137439
:1021C0008094804004E02464F0900010E0FF13133A
:1021D000543FFDEF2DFFE433FE7C007D0712065EC9
:1021E000AE04AF0590000FE02FFFE43EFE90000E1E
:1021F000E0F9903C89937C002FFFEC3EFE900010AC
:10220000E05403700FE9C39403748094805005EF89
:102210001F70011E7C007D0712065EAF0522900331
:1022200007E0FF7E006406702A90029CE0FD25E036
:1022300025E02482F582E43402F583E014F0F470A2
:1022400073ED25E025E02482F582E43402F5837401
:1022500017F022EF64074E702A90029CE0FF25E001
:1022600025E02483F582E43402F583E014F0F47071
:1022700043EF25E025E02483F582E43402F58374FE
:102280003BF022900307E06408702990029CE0FF75
:1022900025E025E02481F582E43402F583E014F0A2
:1022A000F47011EF25E025E02481F582E43402F595
:1022B000837403F0227D017F061222BD0FEFB40963
:1022C00000400302234A9022CDF82828730222E816
:1022D0000222F30222FE02230902231402231F0218
:1022E000232A022335022340ED60045380BF22439A
:1022F000804022ED60045380FD2243800222ED6085
:102300000453A0FE2243A00122ED600453A0FB224F
:1023100043A00422ED600453B0EF2243B01022ED3D
:10232000600453D8BF2243D84022ED600453907F0D
:102330002243908022ED600453A9FB2243A904228A
:10234000ED6004438001225380FE22900307E0FFEA
:102350007E006406702790029CE0FD25E025E024C5
:1023600082F582E43402F583E004F06418706CEDC9
:1023700025E025E02482F582E43402805AEF6407E8
:102380004E702790029CE0FF25E025E02483F58233
:10239000E43402F583E004F0643C703FEF25E0256F
:1023A000E02483F582E43402802D900307E0640882
:1023B000702990029CE0FF25E025E02481F582E46D
:1023C0003402F583E004F064047010EF25E025E0AA
:1023D0002481F582E43402F583E4F022900000EFDA
:1023E000F0E4A3F0FE900000E024D9F582E434028A
:1023F000F583E0FF1238D8E4900001F0900001E08E
:10240000C39403748094805060900000E075F006DF
:10241000A424C8F582E43402F583C083C08290000E
:1024200001E0FDD082D08375F00212095DE0FAA3CD
:10243000E0D39FEA9E402A7C00ED70089000017472
:1024400002F08017ED64014C7006900001F0800BE3
:10245000ED64024C700590000104F0900001E0FF73
:1024600022900001E004F080937FFF22E4900000BE
:10247000F0A3F07F04121FB090026CEEF0A3EFF017
:102480004E700790024974F0F02290026CE0FEA3B7
:10249000E0FF90024CE0FCA3E0FD123B1D90000029
:1024A000EEF0A3EFF0C39405EE9400404D9002725D
:1024B000E0FEA3E0FF90026CE0FCA3E0FDD39FEC04
:1024C0009E4020ED9FFFEC9EFED3EF9414EE94000F
:1024D0004011EDF47003EC640F6008900272ECF0B0
:1024E000A3EDF0121374900249EFF090026CE0FF3C
:1024F000A3E090024CCFF0A3EFF022900309E06438
:10250000057014900318E06401707C900317F012BA
:1025100032B39003168028900309E070057F1F02F4
:10252000306A900309E0FF64067018900270E0D3EF
:102530009400748094804004E014F022900270743F
:1025400003F022E4900319F090030DF09003087457
:102550003CF0EF24FE600D24FE600E2403701C127C
:1025600016DA801712221E801290027FE014F0C348
:102570009401748094805003740FF090031574A03C
:10258000F09003197401F022787FE4F6D8FD75818C
:10259000210225CF021A9FE493A3F8E493A34003FA
:1025A000F68001F208DFF48029E493A3F8540724AD
:1025B0000CC8C333C4540F4420C8834004F456806D
:1025C0000146F6DFE4800B010204081020408090F1
:1025D0000E4AE47E019360BCA3FF543F30E50954EA
:1025E0001FFEE493A360010ECF54C025E060A84015
:1025F000B8E493A3FAE493A3F8E493A3C8C582C80C
:10260000CAC583CAF0A3C8C582C8CAC583CADFE9E0
:10261000DEE780BE90030DE06049A3E070459003C3
:1026200007E024F960151460212402705CE4FBFDCE
:10263000FF1230C9E4FBFD7F018023E4FBFD7F0234
:102640001230C9E4FBFD7F038014E4FBFDFF123070
:10265000C9E4FBFD7F011230C9E4FBFD7F021230AB
:10266000C98026900307E0C3940874809480500EBC
:102670001222B590029CE004FF1219C9800B90034E
:1026800007E06408700312321D90029CE090030E74
:102690007006E0FD7F038004E0FD7F041222BD226E
:1026A00090027CE070249002FAF0A3F09002FEE029
:1026B0002400F582E43403F583E0FF900304E0FD99
:1026C000123AB490027C7401F0223009589002FA58
:1026D000E004F0C39432748094804049E4F0C2096D
:1026E000A3E004F09403748094804008E4F0900325
:1026F00004E004F0900304E0FED39404748094801A
:102700009002FEE0400F2400F582E43403F583E0FC
:10271000FFE4FD800D2400F582E43403F583E0FF3F
:10272000AD06123AB422900318E06401701A9003C7
:1027300016E060147B0B7D017F011230C9900316F7
:10274000E0FB7D017F02801A900318E0640270159F
:102750009002DBE0FB1230C51222B59002D7E0FBFD
:102760007F031230C9900318E06402703D90027A32
:10277000E060149002FEE02400F582E43403F58367
:10278000E0FFE4FD123AB490027AE07003123C5A82
:10279000900280E0600312351D900280E0700B9083
:1027A0000276E064EF6003123AEB2290030DE060E2
:1027B0004EA3E0704A900307E014601214601114F5
:1027C000600E14601C146027240570618013801F44
:1027D000E4FBFDFF1230C9E4FBFD7F011230C9802C
:1027E0000EE4FBFDFF1230C9E4FBFD7F01800DE428
:1027F000FBFD7F021230C9E4FBFD7F030230C9906C
:102800000307E0C394027480948050081222B5E458
:10281000FF0219C9900307E0640270030238569062
:102820000307E0640370030229A21231CA22E49074
:102830000243F0A3F0FFEFC3940874809480506BC0
:10284000EF75F008A424F7F582E43401F583E4F091
:10285000A374C8F0EF75F008A424F5F582E4340100
:10286000F583E4F0A3F0EF75F008A424F4F582E416
:102870003401F5837402F0EF75F008A424F9F582B1
:10288000E43401F583E4F0EF75F008A424FAF5824E
:10289000E43401F5837414F0EF75F008A424FBF51B
:1028A00082E43401F583E4F00F808B22900309E089
:1028B0006407607212359A1238289001E1EFF01225
:1028C000098928FC0228FF03291407291708291A57
:1028D0000D290210290212290213291D152920167B
:1028E00029231729081B290B1C29051F2905212924
:1028F0000522290E252911260000292602338A02E5
:1029000039ED0220530224FB0236C202001E0236B9
:102910008A023C5002311C0239A10234DB023C55D0
:1029200002372E123B3322E4900319F090029CEF01
:10293000F0E0FF25E025E02481F582E43402F58310
:10294000E090028DF0EF25E025E02482F582E4346A
:1029500002F583E090028EF090029CE025E025E0F5
:102960002483F582E43402F583E090028FF0EF25B2
:10297000E025E02484F582E43402F583E0900290BF
:10298000F01232B39003097402F090030D14F0902A
:1029900003077406F090031574A0F09003197401F6
:1029A000F022900291E0FEA3E0FF7C037DE8120696
:1029B0005EAB071230C5900291E0FEA3E0FF7C03FE
:1029C0007DE812065E7E007F64CFCDCFCECCCE12E6
:1029D000065EAB077D017F011230C9900291E0FED7
:1029E000A3E0FF7C007D6412065E7E007F0ACFCDEF
:1029F000CFCECCCE12065EAB077D017F021230C96E
:102A0000900291E0FEA3E0FF7C007D0A12065EAB1F
:102A1000057D017F030230C990802C7405F075F7A5
:102A20000475DD0275D10775DFD0E4F5D2F5D34327
:102A3000DB10E5DB70FC43DA10123C1D7F05121F32
:102A4000B09002A6EEF0A3EFF09002A6E0FEA3E0A5
:102A5000FF9002A3EEF0A3EFF09002B2E0FCA3E03F
:102A6000FDD3EF9DEE9C40159002A6A3E0F4700309
:102A7000EE640F60089002B2EEF0A3EFF0123B8319
:102A80007B017A0279B0021CF59001E0E0FD900133
:102A9000DFE0FCC39D5006C3ED9CFE800DED2414C9
:102AA000FE9001DFE0FDC3EE9DFEEED39401748045
:102AB000948040D5C2AC9001DFE004F0E075F014E2
:102AC00084E5F0F0E024CBF582E43401F583EFF007
:102AD000200C20D2AC9001E0E004F0E075F014840A
:102AE000E5F0F0E024CBF582E43401F583E0F599DC
:102AF000D20C22D2AC22EF64017050ED30E70553C6
:102B000080DF8003438020ED30E60553A0DF8003A3
:102B100043A020ED30E50553A0BF800343A040ED66
:102B200030E4055380FB8003438004ED30E305531C
:102B300080F78003438008ED30E2055380EF800387
:102B4000438010ED30E11653807F2243802043A064
:102B50002043A0404380044380084380104380808A
:102B600022EF64017050ED30E70553A0FD80034370
:102B7000A002ED30E60553A0F7800343A008ED3036
:102B8000E50553A9EF800343A910ED30E40553B0E8
:102B9000DF800343B020ED30E30553A9F780034302
:102BA000A908ED30E20553A0EF800343A010ED30FB
:102BB000E1165390F72243A00243A00843A9104313
:102BC000B02043A90843A01043900822EF6401708D
:102BD00050ED30E7055390BF8003439040ED30E661
:102BE000055390DF8003439020ED30E50553A9DFC6
:102BF000800343A920ED30E40553D8FE800343D879
:102C000001ED30E30553A9FD800343A902ED30E255
:102C10000553A07F800343A080ED30E1165390EF71
:102C20002243904043902043A92043D80143A90266
:102C300043A08043901022EF64017050ED30E7050F
:102C400053A9FE800343A901ED30E60553D8DF8088
:102C50000343D820ED30E50553D8F7800343D80867
:102C6000ED30E40553D8FD800343D802ED30E30591
:102C70005390FE8003439001ED30E2055390FB80BA
:102C800003439004ED30E1165390FD2243A9014324
:102C9000D82043D80843D80243900143900443907E
:102CA0000222C0E0C0F0C083C082C0D075D000C096
:102CB0000730981DC298900165E004F0E075F0645B
:102CC00084E5F0F0E02467F582E43401F583E599CA
:102CD000F030992BC2999001E0E0FF9001DFE06FA6
:102CE000601BA3E004F0E075F01484E5F0F0E0244C
:102CF000CBF582E43401F583E0F5998002C20CD073
:102D000007D0D0D082D083D0F0D0E0329080207431
:102D100001F090803704F0908036F090802AF09097
:102D2000802FF043A98043A94053D8FB53D87F128A
:102D3000000E7F04121FB090026CEEF0A3EFF0C300
:102D4000900273E09F900272E09E500F90026CE040
:102D5000FFA3E0900272CFF0A3EFF090026CE0FFCF
:102D6000A3E090024CCFF0A3EFF01213749002494D
:102D7000EFF0229000001209209080197403F09067
:102D80008018F0E49001DFF0A3F0900165F0A3F06B
:102D9000C20C7F20FEFDFC900000E0F8A3E0F9A348
:102DA000E0FAA3E0FB1207DBA804A905AA06AB071B
:102DB0007F007E807D517C01120866C3E49FFFE4A2
:102DC0009EAD0775C824F5CBAE058ECAF5CD8ECC69
:102DD000D2CE759850D2AC22E4FF1219C91222B596
:102DE0009002A1E0700A90027DE07002A3E06015FD
:102DF000900299E090030E7006E0FD7F038016E0DC
:102E0000FD7F04801090029FE0FD7F031222BD90A1
:102E100002A0E0FD0F1222BD9002D6E060149003E4
:102E20000EE0600A9002A1E060047D0180067D0052
:102E30008002E4FD7F081222BD2243AEA0E5AE3041
:102E4000E0FB908080E04440F0E04480F09080819E
:102E5000E054F8F0E054F84404F043BA60438608C4
:102E6000D28CD2A99080247403F043A98043A94056
:102E700090802A14F053D8FB53D87F90802304F01D
:102E80009080207401F09080267403F0908027F0E9
:102E9000908021F0E49002F9F022900001EBF0A381
:102EA000EAF0A3E9F090002C7401F0A37400F0A301
:102EB0007404F0900001E0F9A3E0FAA3E090012F80
:102EC000C9F0A3EAF0A3E9F090002CE0F9A3E0FA3E
:102ED000A3E0900132C9F0A3EAF0A3E9F07B017A04
:102EE00000792F1232697B017A00792F12376290B4
:102EF000002CE4F0A3F0A3F022A903EDFB6404602E
:102F00000FEB6406600AEB64096005EB640B700F5D
:102F1000E9D3941E748094807F00403A7F0122EDB3
:102F20006402702412379AEF600FE9D3941D748005
:102F300094807F0040207F0122E9D3941C74809408
:102F4000807F0040117F0122D3E9941F7480948018
:102F50007F0040027F0122900309E0640760543043
:102F6000C2369002F8E004F0C39414748094804058
:102F7000427414F09002F77401F0E49002EEF090C5
:102F800002F4E0702E04F09003097407F090030B34
:102F90007401F0A374F4F022E49002F8F09002F7C8
:102FA000F09002F4F0123C029002EEE0700504F0A2
:102FB00012300F22C0E0C083C082C0D075D000C0E4
:102FC00007E5EE30E13E75EE0290030EE07F007003
:102FD000027F0190030EEFF0600E9002A27401F0E8
:102FE0009002F6E0600214F0AFF2EF701790031455
:102FF000E07F0070027F01900314EFF06006900202
:103000007B7401F0D007D0D0D082D083D0E032E4FE
:1030100090801BF090801FF01232B3123C02123AE3
:10302000D1123BF3123C44123C4AC28CC2A9C28E5C
:10303000C2AB53AE7FE4F5B1908080E04480F07F76
:10304000017E00123A77908081E054F84401F0E468
:10305000908080F05386F79002F904F0E49002F437
:10306000F09002F2F0A37432F0229002A1E0600C22
:103070007E0070027E019002A1EEF02290027DE0BF
:10308000FCA3E0FD4C6013ED4C7E0070027E01EE6F
:10309000FF90027DE4F0A3EFF022EF24DC60142423
:1030A0000A701F90029FE07F0070027F0190029FD4
:1030B000EFF0229002A0E07F0070027F019002A05A
:1030C000EFF0227B017D01E4FF900002EDF0A3EB25
:1030D000F0EF1460191460251460312403703C90E3
:1030E0000002E0FFA3E0903C9693FD022AF69000D8
:1030F00002E0FFA3E0903C9693FD022B619000025A
:10310000E0FFA3E0903C9693FD022BCC900002E000
:10311000FFA3E0903C9693FD122C3722900309E028
:1031200064057036900318E024FE601D047043129D
:1031300032B39003167404F0A3E004F0E06402706C
:1031400031F0A37402F00232B3E4900318F0123CA1
:103150005A123AEBE4900309F022900309E0700957
:103160009002A1E0600C023343900309E064047014
:1031700001F022300B53200A16900303E004F0C341
:103180009432748094804041D20AE4F0023A9790DD
:103190000303E004F0C3940A74809480402B9002EF
:1031A000FDE0FFD3940074809480400E9002FFE015
:1031B00004F09F4005C20BD20922C20AE490030327
:1031C000F09002FCE0FF1239C7227D017F06122237
:1031D000BD900293E075F00A84FF24FFE433FDAB59
:1031E00007E4FF1230C9900293E075F00A84ABF057
:1031F0007D017F011230C9900294E075F00A84FFCE
:1032000024FFE433FDAB077F021230C9900294E043
:1032100075F00A84ABF07D017F030230C97B0A7D23
:10322000017F011230C990029CE025E025E0248155
:10323000F582E43402F583E0146011146015146023
:1032400019240370231230C37B0180151230C37B15
:1032500005800E1230C37B0780077B061230C57BCA
:10326000077D017F021230C92290012FE0FFA3E009
:10327000FEA3E0CF900138F0A3EEF0A3EFF09001B1
:1032800032E0CBF0A3E0CAF0A3E0C9F07F229001C6
:103290003BAD82AC8312057D8D828C83F0A309E95E
:1032A00070010ADFEC900132E0FBA3E0FAA3E0F941
:1032B000020A2C903C9EE493FDE4FF122AF6903C17
:1032C0009EE493FDE4FF122B61903C9EE493FDE4A9
:1032D000FF122BCC903C9EE493FDE4FF122C37436D
:1032E000804043800243A00143A00443B01043D870
:1032F0004043908043A9045380FE22903C9EE49377
:10330000FD7F01122AF6903C9EE493FD7F01122B73
:1033100061903C9EE493FD7F01122BCC903C9EE497
:1033200093FD7F01122C375380BF5380FD53A0FEC5
:1033300053A0FB53B0EF53D8BF53907F53A9FB5317
:1033400080FE229002A1E07D0070027D019002A12A
:10335000EDF090027DE4F0A304F0900299E0900279
:1033600079F090027FE025F3FFE5F4541FFEEFC3F0
:10337000943C74809480400574C42FFF0E90028AA0
:10338000EEF0A3EFF0A3E5F2F022900309E064056C
:103390007016900318E064017033900317F0123236
:1033A000B39003167402F022900309E070149002A7
:1033B0009BE07F0070027F0190029BEFF07F010293
:1033C000306A900309E06401700312392A229003E5
:1033D00009E06405603B9002F7E060359002A1E0EF
:1033E0006021E490027DF0A3F0900278E070020486
:1033F000F090027AE060031226A0900280E0601153
:1034000002351D900278E06005E4F0123C5A123A51
:10341000EB229002F7E0603D900309E0B408005011
:1034200034903428F8282873023443023449023493
:103430004602345502344C02344F023452023440B6
:10344000023A35022DD80226140227AB02002602CA
:103450002726123C2A22900246E0703C43D8804343
:10346000A980900276EFF09002487401F0E4900297
:1034700077F09002477404F09002467401F0E490F3
:103480000245F0758D47758B47D28ED2ABEF64EF56
:103490006006900274E004F02290029CE06F703AA3
:1034A000900319F01232B3900307E064087019908A
:1034B0000309F090029CE0700790029F04F0800ED8
:1034C0009002A07401F08006900307E004F09003DE
:1034D0001574A0F09003197401F022900309E064C0
:1034E0000560397405F0E4900318F01232B37B01E3
:1034F0007D017F011230C97D017F051222BDE4FBF1
:103500007D017F021230C97B0C7D017F031230C91F
:103510009003157428F09003197401F02220C03C28
:1035200090026FE07036900274E07008900249E0FB
:10353000FF123456900274E064017008900270E04B
:10354000FF123456900274E0C39402748094804059
:103550000B90026F74C8F0E4900274F02290000C9B
:10356000EEF0A3EFF090000CE0FEA3E0FF7C007D06
:103570000612064C90000CEEF0A3EFF090000C74D5
:10358000FFF5F01206C945F0600FE4FBEBC3940FA2
:103590007480948050E60B80F3227F061238D89016
:1035A00001E2EEF0A3EFF07BFF7A3C796390000438
:1035B000EEF0A3EFF0122E9AE4900000F0900000DD
:1035C000E0FFC3940874809480500B12109C90000C
:1035D00000E004F080E7229002A1E0603590029DB7
:1035E000E475F0011206B3FEC3E5F09458EE9402C0
:1035F0004020E49002A1F090027DE0FEA3E0FF4EA7
:103600006010EF4E7F0070027F0190027DE4F0A316
:10361000EFF022AD07E4FC7BFFEDC39408748094C7
:10362000805029E4FAEAC3940874809480501AAF59
:1036300002123A12EF60030CAB02EC64017007EB6C
:10364000B505037F01220A80DC7F00227F0022C0B3
:10365000E0C0F0C083C082C0D075D000C000C001FF
:10366000C002C003C004C005C006C007121C37D08A
:1036700007D006D005D004D003D002D001D000D0AE
:10368000D0D082D083D0F0D0E032900309E064053E
:103690007016900318E064017027900317F012323F
:1036A000B39003167406F022900309E0FB7A0070D1
:1036B000057F2402306AEB64024A70057F011234F0
:1036C0009922900309E064057016900318E06401E4
:1036D0007026900317F01232B39003167407F0228D
:1036E000900309E0FB7A0070057F1A02306AEB64F0
:1036F000024A7004FF12349922EDFB7A00640460E0
:103700000FEB6406600AEB64096005EB640B70075D
:10371000900294741EF022EB64024A701012379AE1
:10372000EF9002946004741DF022741CF0227F1646
:1037300012306A900309E064057016900318E06483
:1037400001701E900317F01232B39003167401F04B
:1037500022900309E0640670081232B3E490030972
:10376000F02290012FEBF0A3EAF0A3E9F090012FF3
:10377000E0FBA3E0FAA3E0F912057D601790012FAA
:10378000A3E475F0011206C9A9F0FA12057DFF1233
:103790002A8980D922E0FEA3E0FFAB07AA06EB54FA
:1037A000037021FC7D6412065EED4C7014AE02AF16
:1037B000037C017D9012065EED4C7F0070087F0156
:1037C000227F01227F00227F021238D8D3EF948516
:1037D000EE940350199002F5E004F0C39414748041
:1037E000948040137414F09002F17401F022E4907C
:1037F00002F5F09002F1F022EFFDC3940274809480
:10380000804024D3ED940874809480501AEF24FEF5
:1038100033333354F84480F5AEE5AE30E0FB9080AE
:1038200081E054F84404F022900244E0FF90024307
:10383000E0FEB507037F002274342EF582E43402E3
:10384000F583E0FF900243E004F0C3940F7480948A
:10385000804002E4F02290029BE060097B0212307B
:10386000C57B0480051230C37B027D017F011230CD
:10387000C97B0B7D017F021230C97B0C7D017F0368
:103880000230C9AD07AC069002A5E0700C90802C08
:103890007405F09002A57401F075F704ECF5D3AF50
:1038A000058FD243DB10E5DB70FC43DA1022900277
:1038B00091E0FEA3E0FFA3E0FDA3E0FBA3E0900006
:1038C00004F0900296E0900005F0900297E09000DE
:1038D00006F01217E90215C4120003123C5FE5B9A5
:1038E00030E5FB43B920AFBDEFFEADBC7C00E42D5D
:1038F000FFEC3EC4F854F0C868FEEFC4540F48FF14
:103900002290027DE07002A3E0601EE5F4541FFFE8
:1039100090028AE0B50712A3E0B5F30DA3E0B5F27B
:1039200008900279E0FF12395222E4900319F01254
:1039300032B3900307E064057005900309F022900C
:103940000307E004F090031574A0F09003197401CC
:10395000F022900299EFF09002A17401F0E490023D
:103960009DF0A3F090029AF090024A7402F0E49065
:10397000027CF09003047402F022EFB40A07740D85
:10398000123985740A309811A899B8130CC298306E
:1039900098FDA899C298B811F63099FDC299F59989
:1039A00022900309E0701F900319F01232B39003C4
:1039B0000D7401F09003097404F090031574A0F0E5
:1039C0009003197401F02290801B7405F090801F01
:1039D0007402F0C2B775F706E4F5D175DFDDF5D3F3
:1039E0008FD243DB40E5DB70FC43DA4022900309D1
:1039F000E0701E1232B39003097401F090030DF0D1
:103A0000E4900307F090031574A0F090031974017B
:103A1000F022EF25E024E4F582E43401F583E0FEB2
:103A2000A3E0FFC39001E3E09F9001E2E09E7F00EE
:103A300050027F012290030BE07002A3E070169009
:103A400002B0E0FEA3E0FF123883123BD51215C48A
:103A5000E4900309F022900244E02434F582E43437
:103A600002F583EFF0900244E004F0C3940F7480F9
:103A700094804002E4F022900000EEF0A3EFF0907A
:103A8000000074FFF5F01206C945F060097F147E4E
:103A90000012355D80E92253DABF90801B7402F07A
:103AA00090801FF0D2B3D2B77F147E0012355DC272
:103AB000B3C2B722C20AC2099002FCEFF0E490033D
:103AC00003F09002FDEDF0E49002FFF0D20B02391A
:103AD000C7E4908020F053A97F53A9BF90802AF0BB
:103AE000908023F043D80453D87F22900276E0647C
:103AF000EF601120C00E7FEF123456E490026FF099
:103B0000900275F02230C20F122E3A9002F6740A1B
:103B1000F0E49002A5F022E49002F7F022D3EF9DAA
:103B2000EE9C4007EF9DFFEE9CFE22C3ED9FFFEC55
:103B30009EFE227F1712306A900309E0700912324C
:103B4000B39003097406F022E58954CC4421F58929
:103B5000758ACC758CF8D28CD2A9D2AB229002F1A6
:103B6000E0600690030EE08001E4FD7F011222BDBB
:103B700022E490801EF0908038F090803BF090809E
:103B80003CF0227B017A0279A89002B2E0FCA3E02B
:103B9000FD021DAB9080267403F0908027F075B96C
:103BA0003D43BAC02275F1A27F0A7E0012355D1234
:103BB00038AED2EE229002F7E070099002F6E07083
:103BC0000312300F2230B2079002D67401F022E4C3
:103BD0009002D6F0229080257403F075B93D43BA67
:103BE000C002282E90801B7402F090801FF0C2B398
:103BF000C2B7229080267402F0908027F0C2C6C21D
:103C0000C72290802C7402F0C2DCE4908024F02261
:103C10009080217403F075B93D43BAC0229080248E
:103C20007403F075B93D43BAC022900270E0FB7D89
:103C3000017F020230C99080227401F02290801A24
:103C40007401F022E4908021F022E4908025F0229B
:103C50007F010229277F1702306AC20B023A97437D
:103C6000B9802263757272656E745F6B65795F41AE
:103C7000445F76616C7565203D2025640A001F1C39
:103C80001F1E1F1E1F1F1E1F1E1F000303060104F1
:103C9000060205000305FC60DAF266B6BEE0FEF639
:033CA000026E0AA7
:00000001FF
